:020000040800F2
:1000000000060020890200089102000893020008FF
:1000100095020008970200089902000800000000FD
:100020000000000000000000000000009B0200082B
:100030009D020008000000009F020008A1020008C5
:10004000A3020008A3020008A3020008A3020008FC
:10005000A3020008A3020008A3020008A3020008EC
:10006000A3020008A3020008A3020008A3020008DC
:10007000A3020008A3020008A3020008A3020008CC
:10008000A3020008A3020008A30200080000000069
:10009000000000000000000000000000A3020008B3
:1000A000A3020008A3020008A3020008A30200089C
:1000B000A3020008A3020008A3020008A30200088C
:1000C000A3020008A3020008A3020008A30200087C
:1000D000A3020008A3020008A30200080000000019
:1000E000A3020008A3020008A30200080000000009
:1000F000000000000000000000000000A302000853
:1001000000000000A3020008A3020008A3020008E8
:1001100000000000000000000000000000000000DF
:10012000A3020008A3020008A3020008A30200081B
:10013000A302000800000000000000000000000012
:10014000000000000000000000000000A302000802
:10015000A3020008A3020008A3020008A3020008EB
:10016000A3020008A3020008000000000000000035
:10017000000000000000000000000000000000007F
:1001800000000000A30200080000000000000000C2
:10019000A3020008A302000800F006F800F00FF820
:1001A00000F01AF800F04BF82C48016841F001010A
:1001B00001602B48016841F0010101607047294846
:1001C000016821F0040141F0040101602648016842
:1001D00021F002010160704724484FF000010160E6
:1001E000234840F23F610160224842F20F710160F2
:1001F0002148016821F0800141F0800101601E4822
:10020000016821F0100101601B48016821F008011C
:1002100001601A48016841F0010101601648016857
:1002200041F001010160154B15490A6802F0010215
:10023000002AFAD00B6823F001030B6070471148C5
:1002400040F202010160FFF7EEFF0E48016821F065
:1002500002010160FFF7E7FFFFF7F1FF30380240CE
:1002600044380240000002400400024024000140E3
:10027000280001402C000140000001401400014012
:100280001000014014000240094880470948004717
:10029000FEE7FEE7FEE7FEE7FEE7FEE7FEE7FEE736
:1002A000FEE7FEE704480549054A064B7047000093
:1002B000D10200089901000800000020000600207B
:1002C00000020020000200207047704770470000C5
:1002D0004EF68850CEF20000016841F470010160D2
:0402E0007047000063
:040000050800028964
:00000001FF
