:020000040800F2
:10000000600600201D0200082502000827020008E3
:10001000290200082B0200082D0200080000000041
:100020000000000000000000000000002F02000897
:100030003102000800000000330200083502000809
:1000400037020008370200083702000837020008AC
:10005000370200083702000837020008370200089C
:10006000370200083702000837020008370200088C
:10007000370200083702000837020008370200087C
:1000800037020008370200083702000800000000AD
:10009000000000000000000000000000370200081F
:1000A000370200083702000837020008370200084C
:1000B000370200083702000837020008370200083C
:1000C000370200083702000837020008370200082C
:1000D000370200083702000837020008000000005D
:1000E000370200083702000837020008000000004D
:1000F00000000000000000000000000037020008BF
:10010000000000003702000837020008370200082C
:1001100000000000000000000000000000000000DF
:1001200037020008370200083702000837020008CB
:10013000370200080000000000000000000000007E
:10014000000000000000000000000000370200086E
:10015000370200083702000837020008370200089B
:10016000370200083702000800000000000000000D
:10017000000000000000000000000000000000007F
:10018000000000003702000800000000000000002E
:10019000370200083702000800F002F800F02EF8DD
:1001A0000AA090E8000C82448344AAF10107DA45D2
:1001B00001D100F023F8AFF2090EBAE80F0013F0F6
:1001C000010F18BFFB1A43F001031847100200008B
:1001D000200200000023002400250026103A28BF3A
:1001E00078C1FBD8520728BF30C148BF0B607047A9
:1001F0001FB500F0E6F81FBD10B510BD00F031F8D6
:100200001146FFF7F5FF00F0D3F800F04FF803B404
:10021000FFF7F2FF03BC00F057F8000009488047E1
:1002200009480047FEE7FEE7FEE7FEE7FEE7FEE7D8
:10023000FEE7FEE7FEE7FEE704480549054A064BF0
:10024000704700009D03000899010008600000202D
:1002500060060020600200206002002070477047A6
:100260007047754600F02CF8AE46050069465346C7
:1002700020F00700854618B020B5FFF7DDFFBDE888
:1002800020404FF000064FF000074FF000084FF0FD
:10029000000BAC46ACE8C009ACE8C009ACE8C0094A
:1002A000ACE8C00921F007018D46704710B504463F
:1002B000AFF300802046BDE81040FFF7A8BF000064
:1002C000004870470000002001491820ABBEFEE73F
:1002D000260002007047000040F2E732904228BF3B
:1002E0001046914238BF0A4644F23401C4F201017B
:1002F00008604A607047000043F63000C4F2020014
:1003000001680F2241F010010160416941F4803120
:10031000416141F20000C4F20200016821F4705111
:100320000160016841F420510160016A41F440110B
:100330000162016A41F04071016244F21800C4F2A6
:1003400001000021C160026140F2E7324261C161F7
:10035000016250F8181C41F0800140F8181C016837
:1003600021F003010160016841F060010160016852
:1003700021F440710160016841F4C041016081686D
:1003800041F001018160816841F01001816050F805
:10039000181C41F0010140F8181C70474EF68850B7
:1003A000CEF20000016841F4700101607047000066
:1003B000FFF7A2FF4FF42F704FF46171FFF78CFF2E
:1003C000F8E7F1EE100A4FF6FF71C0F2C03120EAF3
:1003D000010040F04070E1EE100A7047EC030008A5
:0C03E0000000002060060000D4010008AE
:040000050800021DD0
:00000001FF
