:020000040800F2
:100000000006002001020008090200080B02000897
:100010000D0200080F020008110200080000000095
:1000200000000000000000000000000013020008B3
:10003000150200080000000017020008190200085D
:100040001B0200081B0200081B0200081B0200081C
:100050001B0200081B0200081B0200081B0200080C
:100060001B0200081B0200081B0200081B020008FC
:100070001B0200081B0200081B0200081B020008EC
:100080001B0200081B0200081B0200080000000001
:100090000000000000000000000000001B0200083B
:1000A0001B0200081B0200081B0200081B020008BC
:1000B0001B0200081B0200081B0200081B020008AC
:1000C0001B0200081B0200081B0200081B0200089C
:1000D0001B0200081B0200081B02000800000000B1
:1000E0001B0200081B0200081B02000800000000A1
:1000F0000000000000000000000000001B020008DB
:10010000000000001B0200081B0200081B02000880
:1001100000000000000000000000000000000000DF
:100120001B0200081B0200081B0200081B0200083B
:100130001B0200080000000000000000000000009A
:100140000000000000000000000000001B0200088A
:100150001B0200081B0200081B0200081B0200080B
:100160001B0200081B020008000000000000000045
:10017000000000000000000000000000000000007F
:10018000000000001B02000800000000000000004A
:100190001B0200081B0200081448016841F004011A
:1001A00001601348016821F4404141F4804101603D
:1001B0000F48016821F0406101600E48016821F09C
:1001C000406141F0806101600B48016811F4005FFB
:1001D00000D005E00948016841F080010160F3E7C3
:1001E0000648016821F080010160EDE730380240E7
:1001F000000802400C0802401008024014080240A7
:100200000948804709480047FEE7FEE7FEE7FEE7AA
:10021000FEE7FEE7FEE7FEE7FEE7FEE704480549E6
:10022000054A064B70470000490200089901000882
:100230000000002000060020000200200002002034
:1002400070477047704700004EF68850CEF20000AD
:0C025000016841F470010160704700007B
:0400000508000201EC
:00000001FF
