:020000040800F2
:1000000060060020BD020008C5020008C702000803
:10001000C9020008CB020008CD0200080000000061
:10002000000000000000000000000000CF020008F7
:10003000D102000800000000D3020008D502000829
:10004000D7020008D7020008D7020008D70200082C
:10005000D7020008D7020008D7020008D70200081C
:10006000D7020008D7020008D7020008D70200080C
:10007000D7020008D7020008D7020008D7020008FC
:10008000D7020008D7020008D702000800000000CD
:10009000000000000000000000000000D70200087F
:1000A000D7020008D7020008D7020008D7020008CC
:1000B000D7020008D7020008D7020008D7020008BC
:1000C000D7020008D7020008D7020008D7020008AC
:1000D000D7020008D7020008D7020008000000007D
:1000E000D7020008D7020008D7020008000000006D
:1000F000000000000000000000000000D70200081F
:1001000000000000D7020008D7020008D70200084C
:1001100000000000000000000000000000000000DF
:10012000D7020008D7020008D7020008D70200084B
:10013000D7020008000000000000000000000000DE
:10014000000000000000000000000000D7020008CE
:10015000D7020008D7020008D7020008D70200081B
:10016000D7020008D70200080000000000000000CD
:10017000000000000000000000000000000000007F
:1001800000000000D702000800000000000000008E
:10019000D7020008D702000800F002F800F02EF89D
:1001A0000AA090E8000C82448344AAF10107DA45D2
:1001B00001D100F023F8AFF2090EBAE80F0013F0F6
:1001C000010F18BFFB1A43F001031847E8010000B4
:1001D000F80100000023002400250026103A28BF63
:1001E00078C1FBD8520728BF30C148BF0B607047A9
:1001F0001FB500F0D2F81FBD10B510BD00F081F89A
:100200001146FFF7F5FF00F0C1F800F09FF803B4C6
:10021000FFF7F2FF03BC00F0A7F800001D480168DB
:1002200041F0020101601C48016841F004010160D5
:100230001A48016821F4405141F400510160184806
:10024000016841F000710160164840F2E731016039
:10025000154840F20F01016014484FF000010160A1
:100260001348016821F0020101601148016841F062
:10027000600101600F4841F0010101600E48016812
:1002800041F001010160704710B5084C2060BDE8E5
:1002900010407047403802403038024000080240A9
:1002A000200802402C040040280400403404004090
:1002B0001804004020040040000400400948804722
:1002C00009480047FEE7FEE7FEE7FEE7FEE7FEE738
:1002D000FEE7FEE7FEE7FEE704480549054A064B50
:1002E00070470000790300089901000860000020B1
:1002F0006006002060020020600200207047704706
:100300007047754600F02CF8AE4605006946534626
:1003100020F00700854618B020B5FFF7DDFFBDE8E7
:1003200020404FF000064FF000074FF000084FF05C
:10033000000BAC46ACE8C009ACE8C009ACE8C009A9
:10034000ACE8C00921F007018D46704710B504469E
:10035000AFF300802046BDE81040FFF758BF000013
:10036000004870470000002001491820ABBEFEE79E
:1003700026000200704700004EF68850CEF20000C2
:10038000016841F47001016070470000FFF746FF0B
:100390004FF42F70FFF778FFFEE7F1EE100A4FF6EB
:1003A000FF71C0F2C03120EA010040F04070E1EE80
:1003B000100A7047C4030008000000206006000017
:0403C000D40100085C
:04000005080002BD30
:00000001FF
