:020000040800F2
:100000000004002009020008110200081302000881
:10001000150200081702000819020008000000007D
:100020000000000000000000000000001B020008AB
:100030001D020008000000001F0200082102000845
:1000400023020008230200082302000823020008FC
:1000500023020008230200082302000823020008EC
:1000600023020008230200082302000823020008DC
:1000700023020008230200082302000823020008CC
:1000800023020008230200082302000800000000E9
:100090000000000000000000000000002302000833
:1000A000230200082302000823020008230200089C
:1000B000230200082302000823020008230200088C
:1000C000230200082302000823020008230200087C
:1000D0002302000823020008230200080000000099
:1000E0002302000823020008230200080000000089
:1000F00000000000000000000000000023020008D3
:100100000000000023020008230200082302000868
:1001100000000000000000000000000000000000DF
:10012000230200082302000823020008230200081B
:100130002302000800000000000000000000000092
:100140000000000000000000000000002302000882
:1001500023020008230200082302000823020008EB
:100160002302000823020008000000000000000035
:10017000000000000000000000000000000000007F
:100180000000000023020008000000000000000042
:1001900023020008230200081548016841F0080105
:1001A00001601448016841F00401016012480168CF
:1001B00021F0020101600F48016821F03001016067
:1001C0000E48016821F0300141F0100101600C4837
:1001D00040F2020101600B4A521EFDD1084A01683B
:1001E00021F002011160074A521EFDD1EFE7000025
:1001F00030380240000C0240040C02400C0C02405B
:10020000140C024040420F00064880470648004751
:10021000FEE7FEE7FEE7FEE7FEE7FEE7FEE7FEE7B6
:10022000FEE7FEE72D020008990100081448006867
:1002300040F47000124908601248006840F0010064
:100240001049086000200F49083108600D48006817
:100250000D4908400B4908600C48091D0860081F3B
:10026000006820F48020091F0860002005490C3137
:1002700008604FF000600249803908607047000054
:1002800088ED00E000380240FFFFF6FE1030002449
:0400000508000209E4
:00000001FF
